:020000040800F2
:10000000107400209D010008F34700083F360008E7
:10001000F14700082D150008654E0008000000009B
:10002000000000000000000000000000614900081E
:10003000B91500080000000015480008AD49000887
:10004000B7010008B7010008B7010008B7010008B0
:10005000B7010008B7010008B7010008B7010008A0
:10006000B7010008B7010008B7010008B701000890
:10007000B7010008B7010008B7010008B701000880
:10008000B7010008B7010008B7010008B701000870
:10009000B7010008B7010008B7010008BB15000848
:1000A000B7010008B7010008B7010008B701000850
:1000B000B7010008514A00085D4A00084D360008A3
:1000C00041360008B7010008B7010008B701000871
:1000D000B7010008594E0008B7010008B701000831
:1000E000B7010008B7010008B7010008B701000810
:1000F000B7010008B7010008B7010008B701000800
:10010000B7010008B7010008694A0008B7010008F4
:10011000B7010008B7010008B7010008B7010008DF
:10012000B7010008B7010008B7010008B7010008CF
:10013000B7010008B7010008B7010008B7010008BF
:10014000B7010008B7010008B7010008B7010008AF
:10015000B7010008B701000831150008B701000811
:10016000B7010008B7010008B7010008B70100088F
:10017000B7010008B7010008B7010008000000003F
:10018000B7010008B7010008DFF80CD000F0AEFF9F
:10019000004800479D5C0008107400200648804716
:1001A00006480047FEE7FEE7FEE7FEE7FEE7FEE75C
:1001B000FEE7FEE7FEE7FEE7354A00088901000892
:1001C0002DE9F00F6FF003042DED0C8B5FEAD30ADD
:1001D000D0E901C7B0F8009004EB89040CEB0408E7
:1001E0009FEDFE9A18BF4FEAD90B00F0C18100BF06
:1001F00091ED000AB0EE493A88ED000A91ED010A4E
:10020000F0EE430A88ED010A91ED020AB0EE431ABE
:1002100088ED020A91ED030AF0EE431A88ED030A15
:1002200091ED040AB0EE432A88ED040A91ED050A27
:10023000F0EE432A88ED050A91ED060AF0EE433A06
:1002400088ED060A91ED070A203188ED070ADCEDFA
:10025000007A9CED017ADCED026A9CED036ADCED2C
:10026000045A9CED055ADCED064AB0EE434A3D4681
:100270000CF11C0408F120085FEA0B0600F026814F
:10028000D5ED008A94ED008A26EE280A65EEA89A3C
:1002900025EE28AA27EEA8BA64EEA8AA67EE28BA27
:1002A00026EEA8CA68EE28CAD5ED018A32EE000A09
:1002B00032EEA92A73EE0A2A30EE8BBA33EEAA3A4E
:1002C000D5ED020A74EE2C3A71EE8C1AD4ED017A57
:1002D00031EE2B1A27EE28DA26EEA8CA66EE28BAE7
:1002E00025EEA84A65EE289A24EEA8AA68EE28AA68
:1002F00067EEA8CA94ED027A7BEE0D8A31EE0C1AF5
:1003000071EEAB1A30EE040A32EE292A72EE8A2A16
:1003100033EE2A3A73EEAC3A66EEA0CA66EE20BA25
:1003200065EEA09A25EE20AA24EEA04A68EE20AA47
:1003300027EEA0BA27EE20CAD5ED030AD4ED036A52
:1003400030EE0A0A32EE042A78EEAC8A31EE2B1A2D
:1003500071EEA91A72EEAA2A33EE0B3A73EE8C3ABA
:1003600066EE20CA65EEA0BA65EE209A24EEA04A99
:1003700028EE20AA67EEA0AA27EE20BA26EEA0CA91
:10038000D5ED040A78EEAC8A31EE2B1A71EEA91A7B
:1003900030EE040A32EE0A2A72EEAA2A33EE0B3A43
:1003A00073EE8C3A65EEA0CA94ED046A65EE20BA4D
:1003B00024EEA0BA28EE204A67EEA09A27EE20AAE3
:1003C00066EEA0AA26EE20CAD5ED050AD4ED055AA0
:1003D00031EE2B1A71EE8B1A78EEAC8A30EE040AED
:1003E00032EE292A72EE8A2A33EE2A3A73EE8C3ADA
:1003F00065EE20CA24EEA0BA68EE20BA27EEA04A25
:1004000067EE209A26EEA0AA66EE20AA25EEA0CAE4
:10041000D5ED060A30EE040A32EE292A27EE204AEC
:1004200094ED065A72EE8A2A66EEA09A78EEAC8AAD
:1004300031EE0B1A71EEAB1A33EE2A3A73EE8C3AA8
:1004400026EE20AA65EEA0AA64EEA0BA28EE20CA85
:1004500027EEA0BA65EE20CAD5ED070A30EE040AF1
:1004600032EE294A72EE8A9A33EE2AAAD4ED074A6E
:1004700031EE0C1A78EEAB8A28EE20CA71EE8B1A98
:1004800073EEACAA66EE202A67EEA0BA27EE20BA79
:1004900026EEA02A25EEA03A65EE203A24EEA08AA8
:1004A00074EE222A78EE8C0A31EE2B1A71EE8B1A3A
:1004B00030EE022A39EE833A7AEE233A3AEE884A4F
:1004C00020342035761E7FF4DBAE00BF19F007061E
:1004D00036D000BF95ED008A94ED000A241D67EE2A
:1004E000889A67EE088A26EE88AA66EE08AA25EEA4
:1004F00088BA65EE08BA24EE88CA20EE088AF0EEC3
:10050000477AB0EE667AF0EE466AB0EE656AF0EED3
:10051000455A70EEA90A31EE281A71EE8A1A32EEA7
:100520002A2A72EE8B2A33EE2B3A73EE8C3A34EE93
:10053000084AB0EE645A2D1DF0EE404A761EC9D12D
:10054000C2ED000A82ED011AC2ED021A82ED032A01
:10055000C2ED042A82ED053AC2ED063A82ED074A61
:100560002032BAF1010A0CF1200C7FF441AE00BF39
:1005700013F0070A43D000BFB1EC010A3E1D0CF195
:100580000404B9F10103A8EC010ADCED000A97EDBF
:10059000001AB0EE490A00EE810A29D0B3F1004FEB
:1005A0007DD2002B24DD251F341F13F0010F07D04F
:1005B000D5ED010A94ED011A241D2D1D00EE810ACE
:1005C0005B1015D0D5ED010A94ED011A00EE810AF9
:1005D000D5ED020A94ED021A02E0000000000000CE
:1005E00000EE810A5B1E04F1080405F10805E9D15B
:1005F000A2EC010ABAF1010A0CF1040CBCD140686A
:10060000A9F10104A3081FD0B3F1004F54D2002B6D
:100610001ADD624601461D4692ED000A81ED000A90
:1006200092ED010A81ED010A92ED020A81ED020AC2
:1006300092ED030A103281ED030A10316D1EEBD1E9
:100640000CEB031C00EB031014F0030202BFBDEC23
:100650000C8BBDE8F00F7047B2F1004F42D2002A78
:100660001ADD001FACF1040112F0010F05D091ED6D
:10067000010A80ED010A001D091D52080CD000BFBF
:1006800091ED010A80ED010A91ED020A083180ED39
:10069000020A0830521EF3D1BDEC0C8B00E002E0E0
:1006A000BDE8F00F7047F4EC010A5B1EB6EC011ACE
:1006B00000EE810AF7D19BE79CED000A80ED000A6D
:1006C0009CED010A80ED010A9CED020A80ED020A10
:1006D0009CED030A0CF1100C80ED030A10305B1E38
:1006E000EAD1B1E7BCEC010A521EA0EC010AF9D133
:1006F000D2E770B504460498218008448000011FA9
:100700001D461846A26000F0A3F9656070BD0000A8
:1007100070B44FF0000CB0EC010A4E1E6446B508F0
:1007200032D000BFD0ED000A90ED011A0830B4EECF
:10073000E00AF1EE10FA3CBFB0EE600A0CF10104E1
:10074000B4EEC10AF1EE10FA3CBFB0EE410A0CF172
:100750000204D0ED000A90ED011A0830B4EEE00A70
:10076000F1EE10FA3CBFB0EE600A0CF10304B4EEF7
:10077000C10AF1EE10FA3CBFB0EE410A0CF10404DC
:100780006D1E0CF1040CCDD116F0030C18D0BCF189
:10079000004F1AD2BCF1000FC4BF002566460FDD22
:1007A000D0ED000AF4EEC00AF1EE10FA04DD4C19A7
:1007B000B0EE600AA4EB0C04001D6D1C761EEFD198
:1007C00082ED000A1C6070BC7047F0EC010AB4EEC8
:1007D000E00AF1EE10FA3CBFB0EE600AA1EB0C04A7
:1007E000BCF1010CF1D1EBE72DE9F003002450F846
:1007F00004CBA1F1010825465FEA98061BD000BF93
:1008000050F8047B50F8049BBC45BCBFBC46651C3B
:10081000CC45BCBFCC46A51C50F8047B50F8049BCB
:10082000BC45BCBFBC46E51CCC45BCBFCC46251D69
:10083000241D761EE4D118F0030413D02646B4F12B
:10084000004F15D2002CC8BF00270BDDD0F8008068
:10085000E04502DDCD19C4462D1B001D761E07F1B3
:100860000107F3D1C2F800C01D60BDE8F003704776
:1008700050F8046BB445BCBFB4460D1B641EF7D1E1
:10088000F0E7000070B44FF0000CB0EC010A4E1E0F
:100890006446B50832D000BFD0ED000A90ED011AD1
:1008A0000830B4EEE00AF1EE10FAC4BFB0EE600A10
:1008B0000CF10104B4EEC10AF1EE10FAC4BFB0EEBF
:1008C000410A0CF10204D0ED000A90ED011A083043
:1008D000B4EEE00AF1EE10FAC4BFB0EE600A0CF11B
:1008E0000304B4EEC10AF1EE10FAC4BFB0EE410A3F
:1008F0000CF104046D1E0CF1040CCDD116F0030CA8
:1009000018D0BCF1004F1AD2BCF1000FC4BF0025B3
:1009100066460FDDD0ED000AF4EEC00AF1EE10FAE3
:1009200004D24C19B0EE600AA4EB0C04001D6D1C3F
:10093000761EEFD182ED000A1C6070BC7047F0ECAF
:10094000010AB4EEE00AF1EE10FAC4BFB0EE600A9C
:10095000A1EB0C04BCF1010CF1D1EBE7930813D02F
:10096000D0ED001A90ED011AD0ED020A90ED030AC5
:10097000C1ED001A81ED011AC1ED020A81ED030AF1
:10098000103010315B1EEBD112F0030208BF70472C
:10099000B2F1004F1DD2002AD8BF7047001F091FB7
:1009A00012F0010F05D090ED010A001D81ED010A42
:1009B000091D520808BF704790ED010A81ED010A38
:1009C00090ED020A083081ED020A0831521EF3D17F
:1009D0007047B0EC010A521EA1EC010AF9D1704730
:1009E0002DE9F05F0546002092469B468846064664
:1009F000814640241BE0284641464746224600F0F7
:100A000056FA53465A46C01A914110D31146184619
:100A1000224600F03DFA2D1A67EB01084F462246A8
:100A20000120002100F034FA17EB00094E41201E8E
:100A3000A4F10104DFDC484631462A464346BDE8BE
:100A4000F09FD2B201E000F8012B491EFBD27047A3
:100A50000022F6E710B513460A4604461946FFF78A
:100A6000F0FF204610BD2DE9FE4F804681EA0300CD
:100A7000C00F0C46009021F0004123F00045B8EB78
:100A80000200A94105D24046214690461C460B462D
:100A9000024623F00040104347D0270DC7F30A0059
:100AA000C3F30A510290401A019040286BDAC3F355
:100AB000130040F4801B0098924620B10023D2EB33
:100AC000030A63EB0B0B01985946C0F140025046F4
:100AD00000F0DEF906460D4650465946019A00F0F0
:100AE000F6F910EB08006141002487EA115284EA0C
:100AF000E7731A4340D0009A62B3019A012A4FEA81
:100B0000075215DC001B61EB02014FF0004202EAC4
:100B10000752CDE90042001C41F5801132462B46B8
:100B200000F02DFA03B0BDE8F08F40462146F9E70A
:100B3000001B61EB0201001C41F5801300185B41B2
:100B40002018A2F5001747EB030140EAD570B6194B
:100B50006D4111E06D084FEA360645EAC0754FEA6F
:100B60000752001B61EB0201001C41F5801149088E
:100B70004FEA30000019514132462B4603B0BDE820
:100B8000F04F00F0EDB90098012240000023D0EBB7
:100B9000020263EBE073009821464FEAE074B8EB81
:100BA000000061EB0401E9E783F000435BE781F0BB
:100BB000004158E72DE9FE4F81EA030404F00044A8
:100BC00021F0004100944FF0000B23F0004350EA65
:100BD00001045ED052EA03045BD0C3F30A54C1F3AC
:100BE0000A552C44A4F2F3340194A0FB0254C1F33F
:100BF000130141F48011C3F3130343F4801301FB89
:100C0000024400FB034E840A970A44EA815447EAEF
:100C10008357A4FB076802958D0A05FB07854FEAF9
:100C2000932C04FB0C542705029D4FEA065847EA13
:100C30001637B5EB08056EEB070C870E920E47EAE8
:100C4000811742EA8312A7FB0201B6EB0B0164EBAA
:100C500000042B0D43EA0C335E1844EB1C50DA46BB
:100C60005146E7FB0201C5F313044FEA0B3343EA95
:100C700014534FEA0432019C43EA0603A4F10C0426
:100C80000294009CCDE900B400F079F903B0BDE80E
:100C9000F08F00200146F9E72DE9F04D81EA0304C9
:100CA00004F0004B21F0004514464FF0000A23F0F9
:100CB000004150EA050220D054EA01021DD0C5F3DC
:100CC0000A570246C5F31303C1F31300C1F30A56D2
:100CD00040F4801543F48013A7EB0608101BD6469A
:100CE00008F2FD3873EB050002D308F1010801E0BA
:100CF00092185B41B8F1000F03DA00200146BDE80D
:100D0000F08D00204FF48011064684460EE0171B3C
:100D100073EB050705D3121B63EB050306434CEA8F
:100D2000010C49084FEA300092185B4150EA010774
:100D3000EDD152EA030012D082EA040083EA0501F1
:100D4000084305D0101BAB4106D20122002306E068
:100D500000224FF0004302E06FF0010253101AEB43
:100D600006004CEB085110EB0A0041EB0B01BDE80B
:100D7000F04D00F0F5B80EB5C10F80EAE070084400
:100D8000CA07002140F233438DE80E000A460B46A5
:100D900000F0F5F803B000BD70B5C1F30A5201F0E0
:100DA00000450024C1F3130140F2FF3341F48011E8
:100DB0009A4201DA002070BD40F233439A42A2F217
:100DC000334203DC524200F072F800E090402C43C2
:100DD000F1D0404270BD00F0004230F000400AD037
:100DE000C10D01F56071C0F3160042EA0151C2085D
:100DF00040071143704700200146704730B5041E7C
:100E000071F1000404DB4FF00044404264EB010147
:100E1000141E73F1000405DB1C464FF000435242E0
:100E200063EB0403994208BF904230BD01F00043D8
:100E300030B421F0004150EA010206D00A0DA2F5BB
:100E40006072C1F31301002A02DC30BC002070473D
:100E5000440F44EAC104C100E01830BC00EBC250AA
:100E600000F047B830B50B4601460020202201248F
:100E700009E021FA02F59D4205D303FA02F5491B68
:100E800004FA02F52844151EA2F10102F1DC30BD7E
:100E9000202A04DB203A00FA02F10020704791403A
:100EA000C2F1200320FA03F3194390407047202A2F
:100EB00004DB203A21FA02F00021704721FA02F304
:100EC000D040C2F120029140084319467047202AC1
:100ED00006DBCB17203A41FA02F043EAE07306E062
:100EE00041FA02F3D040C2F1200291400843194672
:100EF00070470029A8BF7047401C490008BF20F078
:100F00000100704710B4B0FA80FC00FA0CF050EA0F
:100F1000010404BF10BC704749B1CCF1200421FA90
:100F200004F411FA0CF118BF012121430843A3EB8B
:100F30000C01CB1D4FEA00614FEA102042BF002098
:100F400010BC704700EBC35010440029A4BF10BC74
:100F50007047401C490008BF20F0010010BC7047DA
:100F600010B5141E73F1000408DA401C41F10001B1
:100F700092185B411A4301D120F0010010BD2DE908
:100F8000F04D92469B4611B1B1FA81F202E0B0FAFF
:100F900080F220329046FFF77BFF04460F4640EA7E
:100FA0000A0041EA0B0153465A46084313D0114642
:100FB00053EA010019D0C8F140025046FFF777FF0D
:100FC00005460E46504659464246FFF761FF084324
:100FD00005D0012004E020463946BDE8F08D002010
:100FE000054346EAE0762C4337430A986305E40A52
:100FF000A0EB08000022FD0A44EA47540A3002D55B
:1010000000200146E9E7010510196941DDE90845BD
:1010100000196941BDE8F04DA2E72DE9F04D00232C
:101020001A461B1A8A4103DB00200146BDE8F08DF9
:10103000C1F30A52C1F3130141F480154FF0000BC4
:10104000D10702D100186D41521E0027044640F21C
:10105000FF11384601EB620A3E46804602460020F8
:101060004FF48011FFF723FFC2197141BB1846EB03
:101070000100B4EB030C75EB000C04D3E41A65EB30
:10108000000517460E46241908F101006D418046FF
:101090003428E3DDF91946EB0600091BA84103D209
:1010A0004FF0FF32134601E0002213461BEB07000E
:1010B00046EB0A51BDE8F04DFFF752BFC1F30A52AB
:1010C000C1F3130140F2FF3341F480119A4202DA76
:1010D00000200146704740F233439A42A2F2334265
:1010E00002DC5242FFF7E3BEFFF7D2BE064C074DCB
:1010F00006E0E06840F0010394E8070098471034E8
:10110000AC42F6D3FFF744F8BC630008DC63000888
:1011100010B5172001F091F903490120C1F8B00280
:10112000BDE8104000F016B80080404210B50849F4
:10113000002401200C7126398870C91C887000F0C9
:101140001DF900B101240A2000F0C6FB204610BDA5
:10115000C40000203EB5112000F0D0F8642000F05B
:10116000BBFB062000F0CAF84FF47A7000F0B4FB25
:10117000112000F0C3F8642000F0AEFB6A460C2199
:10118000202000F063F907A003F06EFE00246D46F6
:1011900021462A5D08A003F067FE641CE4B20C2C13
:1011A000F6D33EBD726561642064656661756C74DA
:1011B000205245473A0D0A0025642025780D0A0083
:1011C00070B50A4E05460020C6F8B002044600205D
:1011D00000F092F8641CE4B205F8010B092CF6D378
:1011E0000120C6F8B002002070BD0000008040421F
:1011F0003F4810B53F4A73210170127842703D4A52
:10120000002128321378547841EA831343EA4413C7
:10121000947843EA0413D478127943EAC40343EA86
:10122000420242F08102334B827010229B1CC2703A
:101230001A785C7841EAC2129B7842EA04121A4397
:101240002C4B02715B1D1A785C7841EAC2129B78C4
:1012500042EA04121A434271264A2D321378547816
:1012600041EA431343EA0413947843EAC403D4786D
:1012700043EA84031479527943EA4403134343F065
:10128000C00282711B4A33321378547841EA431307
:1012900043EA0413947843EAC403D47843EA84030A
:1012A0001479527943EA44031343C371114B017219
:1012B0000B331A785C7841EAC21242EA84129C78B5
:1012C000DB7842EA84021A4342F002024272094A7F
:1012D0000832137841EAC3115378927841EA8301C6
:1012E00041EA420141F0010181720C21C17210BD3D
:1012F000685C00209C00002003F08EBA70B5094D98
:1013000004460020C5F8B002642005F52C7504F0F1
:10131000F1FB204603F080FA642004F0EBFB01208F
:10132000286070BD0080404210B5084900240C714F
:1013300026398C70C91C8C7000F020F800B1012493
:101340000A2000F0C9FA204610BD0000C4000020A9
:10135000094910B501200871263905208870C91C7B
:101360000024887000F00AF800B101240A2000F07F
:10137000B3FA204610BD0000C4000020FEB50026D0
:10138000FFF736FF1E4D0B216A1C412000F05EF86E
:101390000A2000F0A1FA6A460C21202000F056F83D
:1013A0000A2000F099FA17A003F05EFD0024214600
:1013B0002A5D18A003F058FD641CE4B20C2CF6D38F
:1013C00016A003F051FD00246F46285D3A5D90425F
:1013D00005D044B1082C06D00B2C04D001262146A0
:1013E0000CA003F041FD641CE4B20C2CEDD32EB133
:1013F0000DA000BF03F038FD3046FEBD0EA0F9E79A
:10140000685C00205752495445205245473A0D0A1E
:101410000000000025642025780D0A005245414453
:10142000205245473A0D0A005245472077726974A9
:1014300065206572720D0A00524547207772697403
:101440006520737563636573730D0A002DE9F041C0
:101450001C4F0646002014460D46C7F8B002642013
:1014600004F048FB304603F0D7F9642004F042FB57
:10147000681EC0B203F0D0F970064FF0000609D420
:1014800015E0642004F036FB207803F0C5F9761CE3
:10149000F6B2641CAE42F4D30BE0642004F02AFBE5
:1014A0000020FFF729FF761C04F8010BF6B2AE42CC
:1014B000F3D3642004F01EFB0120C7F8B002BDE89E
:1014C000F0810000008040422DE9F041144B0D46B0
:1014D00016464FF4FA6704461A1F3946FFF718F903
:1014E0000F4B394608331A1F2046FFF7CBF90C483B
:1014F0009FED0C1A1C3890ED060AD0ED080A70EE2C
:10150000600A81EE200ADFED080A85ED000A90ED01
:10151000061A40EE410AC6ED000ABDE8F08100005F
:10152000B80000200000344300009643FEE70000AE
:10153000014800F097B80000085C002001681823FB
:10154000CAB2103AB2FBF3F2054B6FF30901032A5A
:101550009B5CC36500D9091D816508467047000082
:101560006462000810B5014600208B698A6A4FF05A
:10157000C07453B1B3F5005F15D072B1012A0CD01D
:10158000022A0AD0032A09D104E01AB1012A06D09E
:10159000022A03D1C96AC90100D5012010BDC96A58
:1015A000A142FAD010BD002AF7D0012AF2D0022AB7
:1015B000F3D0032AF3D010BD70474FF4807000F0D1
:1015C000ABB97047F0B51A4A4FF4FA6ED2E9046429
:1015D00029E053783BB3174DEB782F791B0443EA8E
:1015E00007236F793B43AF7995F807C03F042D7A05
:1015F00047EA0C272F433D022D1200EE105A00EB54
:1016000084051B02B8EE400A1B1285ED000A00EEAD
:10161000103A01EB8403B8EE400A83ED000A002380
:101620005370641C761C7645D3DBC2E90464F0BDBC
:101630009C000020745C002090F83510022903D033
:101640008021416501207047052180F83510006830
:10165000016821F0010101600020704790F8350019
:10166000704700002DE9F84304464FF00009CDF81B
:10167000009063484FF41651A56D0068B0FBF1F778
:101680002E6894F85C10082000FA01F131420FD066
:1016900021680A6852070BD50A6822F004020A6022
:1016A00094F85C108840A860606D40F001006065AF
:1016B00094F85C104FF0010808FA01F0304208D0AD
:1016C00021684969090604D5A860606D40F00200F0
:1016D000606594F85C1004208840304208D021688E
:1016E0000968890704D5A860606D40F00400606552
:1016F00094F85C1010208840304218D021680968A6
:10170000090714D5A86020680168490304D500685A
:10171000000308D5A16C07E00168C90503D401687E
:1017200021F008010160216C09B12046884794F836
:101730005C1020208840304231D021680968C906F9
:101740002DD5A86094F8350005282068016806D0DA
:10175000490347D5006800031DD4616C1CE021F0EB
:10176000160101602068416921F080014161206C0F
:1017700008B9A06C20B12068016821F0080101605F
:1017800094F85C103F208840A86084F8349084F876
:101790003580216D1FE0E16B09B120468847606DFF
:1017A00000282BD0606DC00714D0052084F83500C8
:1017B0002068016821F0010101600098401C009040
:1017C000B84203D820680068C007F6D184F8349086
:1017D00084F83580E16C002910D001B02046BDE8C6
:1017E000F04308470168C905D5D4016821F010010C
:1017F000016084F8349084F83580CCE7BDE8F88344
:10180000980000202DE9F041044600F077F90646E3
:101810005CB1002584F83450022084F8350020683B
:10182000016821F0010101600DE00120BDE8F081B7
:1018300000F064F9801B052805D92020606503208D
:1018400084F83500F2E720680068C007F0D122680C
:10185000116820480140D4E901031843D4E9033654
:101860003343184363691843A3691843E369184372
:10187000236A18430843616A042903D1D4E90B138E
:1018800019430843106020684069666A20F0070128
:1018900030460E43012704280CD1A06A0643E06AB3
:1018A00040B12046FFF75EFE20B14020606584F81D
:1018B0003570BAE7206846612046FFF73FFE94F88E
:1018C0005C203F2191408160656584F8357000207F
:1018D000ACE700003F8010F070B5044600F00EF950
:1018E0000546601C02D004480078044400F006F964
:1018F000401BA042FAD370BD8C000020B0F5807F61
:1019000006D10448D0F82002002801D102F072BFAD
:101910007047000000004042044910B50A680242C6
:1019200002D00860FFF7EAFF10BD0000143C014040
:101930002DE9F84F00224FF0010803254FF00F0E5C
:101940000B6808FA02F42340A3426ED14E68012EC0
:1019500005D0022E03D0112E01D0122E12D186688E
:101960004FEA420C05FA0CF7BE43CF6807FA0CF7B2
:10197000374387604668A6430C79C4F3001494404B
:1019800034434460C668570005FA07FC8C6826EAB1
:101990000C06BC403443C4604C68022C01D0122CAD
:1019A00013D1D40800EB8404A346D4F82090540744
:1019B0004FEAD46A0EFA0AF629EA06090E6906FA0F
:1019C0000AF646EA0906CBF8206006680C7926EA92
:1019D0000C0604F00304BC40344304604C68E4008B
:1019E00065D5364C266846F480462660246822F089
:1019F000030604F480440094314C3444A446D4F8E3
:101A000008489607370F0EFA07F6B4432D4EB0423A
:101A100001D1002624E02C4EB04201D101261FE066
:101A20002A4EB04202D102261AE040E0284EB042CF
:101A300001D1032614E0274EB04201D104260FE065
:101A4000254EB04201D105260AE0244EB04201D114
:101A5000062605E0224EB04201D1072600E0082606
:101A6000BE402643CCF808681E4E34684F689C433D
:101A7000FF0300D51C4334601A4C241D26684F68B0
:101A80009E43BF0300D51E432660164E08363468B9
:101A90004F689C43FF0200D51C433460114E0C3646
:101AA00034684F689C43BF0200D51C433460521C0D
:101AB000102AFFF445AFBDE8F88F0000443802401B
:101AC00000300140000002400004024000080240D3
:101AD000000C0240001002400014024000180240B6
:101AE000001C0240003C01400069084000D0012079
:101AF00070470AB1816170470904FBE701488068BB
:101B0000704700008C000020704770472DE9F041BD
:101B1000016804464A694E6890F83E000025D743A4
:101B2000FA0506D4F243D20503D46FF4807201257E
:101B30004A61B90508D4F143C90505D422686FF498
:101B4000007145F002055161790525D4F143C905BD
:101B500022D4638D94F83D10226B202808D13BB924
:101B6000212910D029290ED0282901D1212A0AD0D3
:101B700022686FF48061516145F00405102806D099
:101B8000402804D008E0204602F09EF904E02068D6
:101B9000016841F400710160380508D4F043C005C4
:101BA00005D421686FF4006045F008054861002DF8
:101BB00007D0206C284320642046BDE8F04101F0A6
:101BC0008FBDBDE8F0812DE9F04102680024516825
:101BD000C56A90F83E3090F83D60102B1CD0402B29
:101BE0001AD0036C002B7ED053694FF02805DB43DD
:101BF0009F0779D4CF43BF0576D4016C01B19469B6
:101C000090F83D3000219D430B467FD0C91E5161A5
:101C100080F83C30BDE8F081946953694FF42A079D
:101C2000DB435FEAC37C4FF02A4604D0BD42F1D0CB
:101C3000B542EFD010E0CD43AD050DD4C16AB94235
:101C400001D1012103E0C16AB14201D10821C16281
:101C5000BDE8F04101F0EABF1D0716D4CD43AD0544
:101C600013D4416CC9B21161416B11B9826B002A66
:101C7000D0D0C96B19B9816BC96B0029CAD0006873
:101C8000416841F400614160C4E79D0706D4CD433B
:101C9000AD0503D4BDE8F04101F03CBFE443526818
:101CA00064074FEA025215D4002AB3DB1A0608D49F
:101CB000CA43520505D45A0705D5BDE8F04101F0E5
:101CC000CDBE5A07A6D4C9438905A3D4BDE8F041C7
:101CD00001F07ABE002A9DDB5A060CD4CA43520595
:101CE00009D45A0702E00FE023E00FE005D5BDE874
:101CF000F04101F01FBE5A078CD4C943890589D42D
:101D0000BDE8F04101F0ADBD94696DE7556825F47B
:101D100080655560E243540700D50121120601D5C4
:101D2000828900E0028B80F83C3092B2FFF7EDFE32
:101D300070E7DC0606D4CC43A40503D4BDE8F0412B
:101D400002F004B9212E27D0292E25D05C0655D4C7
:101D5000CC43640552D45B0752D590F83D10438DB7
:101D6000002B91D01269436A1A70426A521C426277
:101D7000428D521E4285428D002A85D12A29D7D113
:101D800001684A6822F480624A602221016380F877
:101D90003D5000F0E9FA3DE71C0623D4CC4364052E
:101DA00020D45B0720D590F83D10438D002BBFD089
:101DB000436A1B781361426A521C4262428D521E72
:101DC0004285428D002AB3D12929B1D101684A68E0
:101DD00022F480624A602121016380F83D5000F0C6
:101DE000C4FA17E75B07A3D4C9438905A0D4418D82
:101DF00000299DD0416A097811610AE05B0797D4F8
:101E0000C943890594D4418D002991D01169426A52
:101E10001170416A491C4162418D491E4185F9E6B4
:101E20007047000070B5040025D094F83D000025EF
:101E300020B984F83C50204600F052FA242084F85F
:101E40003D002068016821F00101016020680168FF
:101E500041F4004101602068016821F40041016003
:101E600000F0D6FB4D4A6168914201D84C4900E030
:101E70004C49884201D2012070BD4B492368B0FB18
:101E8000F1F15E6826F03F060E435E6063689342A0
:101E900006D94FF4967359434FF47A73B1FBF3F1BB
:101EA0002368491C1E6A26F03F06314319626168A7
:101EB000914210D84900401EB0FBF1F2521CC2F30F
:101EC0000B02042A01D2042022E0B0FBF1F0401CF6
:101ED000C0F30B001CE0A268F2B301EBC10303EBFB
:101EE0000116431EB3FBF6F35B1C43F480431B0552
:101EF00049D092B301EBC10202EB0111401EB0FBCD
:101F0000F1F0401CC0F30B0040F4804040F400406E
:101F10002168CA694CF6FF739A431043C861D4E93B
:101F2000071001432068026822F0C00211430160DB
:101F3000D4E9030101432068826848F2FF339A43E1
:101F400011438160D4E9050108432168CA6822F081
:101F5000FF021043C86001E00EE016E0206801684F
:101F600041F0010101602564202084F83D002563D3
:101F700084F83E50002070BD01EB4106431EB3FBC8
:101F8000F6F35B1CB3E70120C2E701EB4101401E01
:101F9000B0FBF1F0401CC0F30B00B7E7A0860100D6
:101FA00080841E0000093D0040420F0070477047CA
:101FB00070477047704700002DE9FF4F83B09A4685
:101FC000DDE9119793460446DDF84080FFF796FD62
:101FD000054694F83D00202870D11923012271494B
:101FE0002046009502F086F80028F5D194F83C00D0
:101FF000012863D0012084F83C0020680168C907EB
:1020000003D1016841F0010101602068016821F4F9
:1020100000610160222084F83D00402084F83E00E9
:1020200000262664C4F82480A4F82A90608D2085B8
:102030005D48E062CDE9007553465A462046049952
:1020400001F070FE00287CD1208DD0B1012821D074
:102050000228206824D0416980690090208D0328DF
:1020600069D801282BD0514902283B464FF0000285
:10207000009559D08846204602F03CF8002860D1EF
:102080003CE02068416981690091016841F4007178
:10209000016077E02068016821F480610160F0E769
:1020A000016821F4806101602068016841F40061E9
:1020B0000160206841698069009063E06FE02A4612
:1020C0003946204602F095F898BB20680069616A9D
:1020D00008704EE02068016841F4007101602068DA
:1020E0000069616A0870606A401C6062218D491E47
:1020F0002185618D491E6185216838E0206801686D
:1021000021F48061016020680069616A0870606A7A
:10211000401C6062208D401E2085608D401E6085C1
:102120003B46002241460095204601F0E3FF00B9FE
:10213000D0E706E0FFE72A463946204602F059F884
:1021400018B1012007B0BDE8F08F20680069616A0E
:102150000870606A401C6062218D491E2185618D76
:10216000491E618521684A69D24352070AD4096928
:102170000170606A401C6062208D401E2085608D69
:10218000401E6085208D00287FF468AF202084F8F1
:102190003D0084F83E6084F83C600020D2E70220D5
:1021A000D0E70000020010000000FFFF0400010063
:1021B0002DE9FF4F83B09A46DDE911979346044617
:1021C000DDF84080FFF79AFC054694F83D00202892
:1021D0007FD11923012240492046009501F08AFF52
:1021E000002876D194F83C00012872D0012084F8B0
:1021F0003C0020680168C90703D1016841F0010172
:1022000001602068016821F400610160212084F8E8
:102210003D00402084F83E0000262664C4F8248057
:10222000A4F82A90608D20852C48E062CDE90075E5
:1022300053465A462046049901F0F2FD70B930E049
:102240002A463946204602F007F858B1206C042887
:1022500004D12068016841F400710160012007B0D9
:10226000BDE8F08F606A216800780861606A401CF0
:102270006062218D491E89B22185628D521E628560
:1022800022685369DB435B070BD469B100781061A6
:10229000606A401C6062208D401E2085608D401E5B
:1022A0006085208D0028CBD12A463946204601F092
:1022B000FBFE0028CAD154F83D0B016841F40071BF
:1022C0000160202004F81E09E67766770020C6E743
:1022D000FFE70220C3E70000020010000000FFFF3C
:1022E00010B586B0044614216846FEF7B1FB1B49C1
:1022F0002068884230D11A48016841F0020101602B
:102300000068694600F002000590C020009012208D
:1023100001900120029003200390042004901148B2
:10232000FFF706FB0E481030016841F40011016010
:102330000068002200F40010059011461F2000F0F4
:102340009BF81F2000F08AF800221146202000F0A0
:1023500093F8202000F082F806B010BD0054004031
:1023600030380240000402407047704702488168DC
:1023700002781144816070478C0000200B4810B532
:10238000016841F400710160016841F480610160FD
:10239000016841F480710160032000F08DF8002095
:1023A00000F006F800F024F8002010BD003C0240C8
:1023B00070B50D4D04464FF47A712878B1FBF0F0FA
:1023C0000A490968B1FBF0F000F099FC48B9102CFB
:1023D00007D200222146501E00F04EF800206C600B
:1023E00070BD012070BD00008C000020980000200E
:1023F0000A4808B5016841F480410160006800F4B2
:10240000804000900548001F016841F08051016044
:10241000006800F08050009008BD00004438024081
:10242000002809DB00F01F020121914040098000D3
:1024300000F1E020C0F88012704700280DDB00F0AA
:102440001F02012191404009800000F1E020C0F806
:102450008011BFF34F8FBFF36F8F7047002809DBE8
:1024600000F01F02012191404009800000F1E020AE
:10247000C0F8001170470000F0B40E4B1B680C460A
:10248000C3F30223C3F10705042D00D90425191D48
:10249000072901D2002300E0DB1E012606FA05F120
:1024A000491E214099409E40761E16403143F0BCA3
:1024B00002F0EABC0CED00E0064900F007020868F3
:1024C0004FF6FF03184040EA0220034A1043086019
:1024D000704700000CED00E00000FA052DE9F04720
:1024E0000E46050065D0DFF81481D8F80000F7B279
:1024F00000F00F00B04207D288F80070D8F8000052
:1025000000F00F00B04254D128683D4C810712D52D
:10251000400703D5206840F4E05020602878000789
:1025200003D5206840F4604020602068A96820F04E
:10253000F000084320602878C0072DD03049686833
:102540000839012812D0022813D0032811D00968B5
:10255000890700292DDA216821F003010143216058
:10256000FFF7CCFA814641F2883A0EE00968890308
:10257000EFE709688901ECE7FFF7C0FAA0EB090172
:10258000514502D90320BDE8F0872068696800F052
:102590000C00B0EB810FEFD1D8F80010404601F0ED
:1025A0000F01B14207D90770006800F00F00B04278
:1025B00001D00120E7E72878400705D52068E968C1
:1025C00020F4E050084320602878000706D52068F2
:1025D000296920F4604040EAC100206000F038F82A
:1025E0002168084AC1F30311515CC84006490860DC
:1025F00006480068FFF7DCFE0020C4E7003C02400C
:10260000083802406C62000898000020900000200A
:102610000448054900680968044AC1F38221515CF5
:10262000C840704798000020083802407C620008CB
:102630000448054900680968044AC1F34231515C05
:10264000C840704798000020083802407C620008AB
:10265000154810B5006810F00C02144813D0411052
:10266000042A0FD0082A0ED10F4C241F2268236899
:1026700002F03F025B0207D52068C0F38810A0FB80
:10268000010106E0084610BD2168C1F38811A1FBD5
:1026900000010023FEF7A4F92168C1F30141491CA0
:1026A0004900B0FBF1F010BD083802400024F400EE
:1026B0002DE9F84F04006ED02078DFF83C93C00776
:1026C000A9F104054AD009F104000168C1F38101B0
:1026D000012908D00068C0F3810002280AD1D9F886
:1026E0000000400206D52868800337D560680028BE
:1026F000E1D033E06068B0F5803F10D0B0F5A02F96
:10270000286810D020F480302860286820F48020C9
:1027100028606068A8B1FFF7F1F906460DE0286867
:1027200040F48030F4E740F480202860F7E700BFF1
:10273000FFF7E4F9801B642873D828688003F7D575
:102740000CE0FFF7DBF9064605E000BFFFF7D6F91E
:10275000801B6428F0D828688003F7D42078DFF83D
:102760009C8280074FF0000A3ED5A348001D0168F7
:1027700011F00C0F08D00068C0F3810002280BD1C3
:10278000D9F80000400207D42868800716D5E06811
:10279000012800D112E02BE1E068B8B10120C8F8AF
:1027A0000000FFF7ABF9064605E000BFFFF7A6F90A
:1027B000801B0228C0D828688007F7D528682169BF
:1027C00020F0F80040EAC10028600DE0C8F800A041
:1027D000FFF794F9064604E0FFF790F9801B022802
:1027E0001FD828688007F7D42078000722D5824EAA
:1027F00083486169703671B101210160FFF77EF98C
:10280000074604E0FFF77AF9C01B022809D83068B0
:102810008007F7D50EE0C0F800A0FFF76FF9074674
:1028200005E082E0FFF76AF9C01B02287DD8306816
:102830008007F7D42078400768D5DFF8BCB10027BF
:102840000BF13C0BDBF80000C0000BD4DBF80010F0
:1028500041F08051CBF80010DBF80000012700F0B8
:1028600080500090674E3068C00510D4306840F446
:1028700080703060FFF742F9009005E0FFF73EF905
:102880000099401A022850D83068C005F6D55A4E33
:10289000A0686C3601280FD00528306810D020F0D1
:1028A00001003060306820F004003060A068B8B1EA
:1028B000FFF724F900900FE0306840F00100F4E7E2
:1028C00040F004003060F7E7FFF718F90099411A6B
:1028D00041F28830814266D830688007F4D50EE036
:1028E000FFF70CF9009007E0FFF708F90099411A8B
:1028F00041F28830814256D830688007F4D42FB135
:10290000DBF8001021F08051CBF80010A069C8B3AB
:102910003949091D0968C1F3810102294AD00228F9
:10292000504607D0C8F8600000E03CE0FFF7E6F84A
:1029300004463BE04746C8F86000FFF7DFF806466C
:1029400005E000BFFFF7DAF8801B02282BD82868C3
:102950008001F7D4D4E907010843A16A2A4A49084B
:1029600002EB0141626A41EA8211084394F82C109B
:1029700040EA0161C9F8001001203866FFF7BEF88F
:10298000044606E036E000BFFFF7B8F8001B022857
:1029900009D828688001F7D52CE000BFFFF7AEF812
:1029A000001B022802D90320BDE8F88F28688001A7
:1029B000F4D41FE00128F7D0D9F80000E26900F450
:1029C0008001914214D1226A00F03F0191420FD15F
:1029D00047F6C071626A0140914209D1A26A00F4CF
:1029E0004031914204D1E16A00F07060884201D028
:1029F0000120D9E70020D7E7043802400000474211
:102A0000800E4742007000400000FFFF70B50400D8
:102A100005D00025A56294F8510010B106E0012010
:102A200070BD84F85050204600F030F8022084F841
:102A300051002068016821F040010160D4E90101E2
:102A40000843D4E903121143084361690843218B09
:102A500001F400710843E1690843216A0843A16A4F
:102A6000084321680860A069042101EA1040616AF6
:102A70000843216848602068C16921F40061C16190
:102A80006565012084F85100002070BDF0B587B065
:102A9000044614216846FDF7DBFF1C492068884284
:102AA00032D11B480024016841F480410160006874
:102AB00000F48040059016481038016841F0040188
:102AC0000160016801F004010591016841F0020113
:102AD00001600068022500F0020005900C20CDE99D
:102AE000000502AA0326052782E8D00069460948A6
:102AF000FEF71EFF6802CDE9000502AA694682E8DA
:102B0000D0000548FEF714FF07B0F0BD00380040C4
:102B10004038024000080240000402402DE9F84F0E
:102B2000044690F8500000270A9E1D4692468B46A8
:102B30004FF0010901280ED0012084F85000FEF763
:102B4000DDFF804694F85100616801280CD0B1F592
:102B5000827F07D102E00220BDE8F88FA16809B9A1
:102B6000042801D00227C2E0BBF1000F27D0BAF140
:102B7000000F24D01DB394F85100042802D0052082
:102B800084F8510000206065C4F838A0E587A58767
:102B9000C4F830B0E586A5862064606420680168CA
:102BA000490603D4016841F040010160E068B0F5D6
:102BB000006F606805D0E8B3012D46D07FE00127A3
:102BC00095E008B1012D39D1206B21680088C860DB
:102BD000206B801C2063E08E401EE0862EE0206883
:102BE000816889070FD5E18E69B1B9F1010F0AD16A
:102BF000216B0988C160206B801C2063E08E401E21
:102C0000E0864FF0000920688168C9070CD0E18F89
:102C100051B1C068A16B0880A06B801CA063E08FDD
:102C2000401EE0874FF00109FEF768FFA0EB0800A7
:102C3000B04200E009E001D3701C50D1E08E0028C2
:102C4000CDD1E08F0028CAD13FE0206B2168007809
:102C50000873206B401C2063E08E401EE0862EE04F
:102C60002068816889070FD5E18E69B1B9F1010F3C
:102C70000AD1216B09780173206B401C2063E08E20
:102C8000401EE0864FF0000920688168C9070CD01B
:102C9000E18F51B1C068A16B0870A06B401CA063AC
:102CA000E08F401EE0874FF00109FEF727FFA0EB01
:102CB0000800B04202D3701C01D010E07EB1E08E5B
:102CC0000028CDD1E08F0028CAD1424631462046A7
:102CD00001F0B2FD28B101272020606507E003273D
:102CE00005E0A06818B92068C168806800900120DC
:102CF00084F85100002084F8500038462CE710B5C5
:102D0000401EB0F1807F01D3012010BD4FF0E024C0
:102D100060610F21601702F0B7F80020A061072062
:102D20002061002010BD70477047000070B590F81A
:102D30003C20012A32D0012480F83C40022280F855
:102D40003D2003685A689D6822F070060A68324385
:102D50005A60134B02689A4214D0B2F1804F11D0DE
:102D6000104B9A420ED0104B9A420BD00F4B9A4206
:102D700008D00F4B9A4205D00E4B9A4202D00E4B10
:102D80009A4204D1496825F080031943916080F884
:102D90003D40002180F83C10084670BD022070BD07
:102DA000000001400004004000080040000C00400A
:102DB00000040140004001400018004010B504002C
:102DC00003D094F83D0010B107E0012010BD0020B1
:102DD00084F83C00204600F00DF8022084F83D0005
:102DE000211D206801F046FE012084F83D000020EE
:102DF00010BD000008B51E4A01681E4891420ED160
:102E0000016841F0020101600068002200F0020048
:102E1000009011461D20FFF72FFB1D2022E0164ACF
:102E200091420ED1016841F0040101600068002266
:102E300000F00400009011461E20FFF71DFB1E202D
:102E400010E00E4A914211D1016841F00801016081
:102E50000068002200F00800009011463220FFF7C1
:102E60000BFB3220BDE80840FFF7F8BA08BD0000B0
:102E7000000400404038024000080040000C0040C0
:102E80000168CA6842F00102CA600068816801F006
:102E90000701062903D0016841F00101016000200B
:102EA000704770B5044690F83C00012817D0012502
:102EB00084F83C50022084F83D002068826822F0AB
:102EC000770222F47F4282600868502830D00DDCFF
:102ED00020284DD005DC98B310283BD148E00220D3
:102EE00070BD302844D0402834D139E0602828D043
:102EF000702806D0B0F5805F2CD0B0F5005F29D1E6
:102F00000AE0CB68D1E90121206801F017FE2068B2
:102F1000816841F0770109E0CB68D1E9012120689F
:102F200001F00CFE2068816841F48041816011E06D
:102F3000CA684968206801F013FE5021206807E044
:102F400016E0CA684968206801F01BFE602120680D
:102F500001F0FEFD84F83D50002084F83C0070BD77
:102F6000CA684968206801F0FBFD40212068EFE74E
:102F7000226801461046EBE7704770B504460068CA
:102F800001694FF00005C943890715D4C168C943D9
:102F9000890711D4E91E016101202077206880692A
:102FA0008007204602D0FFF7E7FF04E000F098F822
:102FB000204600F096F8257720680169C943490743
:102FC00017D4C168C943490713D46FF004010161E4
:102FD000022020772068806910F4407F204602D0CC
:102FE000FFF7CAFF04E000F07BF8204600F079F814
:102FF000257720680169C943090716D4C168C94308
:10300000090712D46FF008010161042020772068BD
:10301000C0698007204602D0FFF7AEFF04E000F051
:103020005FF8204600F05DF8257720680169C94304
:10303000C90617D4C168C943C90613D46FF010017B
:103040000161082020772068C06910F4407F204685
:1030500002D0FFF791FF04E000F042F8204600F0B4
:1030600040F8257720680169C943C90708D1C168BC
:10307000C943C90704D1891E0161204600F032F816
:1030800020680169C943090609D4C168C943090612
:1030900005D46FF0800101612046FFF744FE2068EF
:1030A0000169C943490609D4C168C943490605D421
:1030B0006FF040010161204600F04AF92068016983
:1030C000C94389060BD4C168C943890607D46FF088
:1030D000200101612046BDE87040FFF725BE70BDAC
:1030E0007047704770B505468648874C85422DED80
:1030F000048B57D104F11402911E881E01F0D2F8FE
:10310000B4F91000FDF737FE9FED809B53EC192BAF
:10311000FDF750FDFDF78AFE08EE900AC4ED1C8A0B
:10312000B4F91200FDF727FE53EC192BFDF742FD11
:10313000FDF77CFE08EE100A84ED1D8AB4F9140038
:10314000FDF719FE53EC192BFDF734FDFDF76EFE6C
:1031500028EEA80A00EE900AC4ED1E0A08EE080A3E
:1031600000EEA00A10EE100AFDF735FE41EC100B40
:1031700001F09AFE51EC100BFDF758FE00EE100A1C
:1031800084ED1B0ADFED630A04F18001624B20EE3F
:10319000200A4868BDEEC00A10EE102A43F820202D
:1031A000401C48605D4885424AD15D48B0F9060040
:1031B00000EE100AB8EEC00ADFED5A0A20EE200A2F
:1031C000F6EE000A20EE200ADFED570A20EE200A74
:1031D000BDEEC00A10EE101AE16301FB01F0484396
:1031E00000EE100AD4ED060A94ED071AB8EEC00AF4
:1031F00060EE200A00EE101AB8EEC00A21EE001AA6
:1032000000EE101AB8EEC00A41EE000A00EE101AE5
:1032100094ED081AB8EEC00A41EE000A94ED090ACE
:1032200030EE800A84ED100AE078032809D2D4ED4C
:10323000120A00F1010030EE800A84ED120AE070FB
:103240003CE03BD14FF00000E07094ED121AF0EE3C
:10325000080A4FF6FF7681EE200ABDEEC00A10EE96
:10326000100A60642071606B012830D02649334613
:103270000122491C2D4800F084F9234933460122DC
:10328000091D2A4800F07DF9022002F033FC606B32
:1032900001282CD01C4933460122891C234800F008
:1032A00070F9194933460122891D204800F069F957
:1032B00001209FED1F0AE06284ED120A1D4885423D
:1032C0001DD1BDEC048BBDE8704002F099BAB2EE9E
:1032D000040A19A021EE000A80EE201ABDEEC10AF0
:1032E00010EE101A01F0C0FD02F07EFFCCE794F959
:1032F000051014A001F0B8FD02F076FFD8E7BDEC90
:10330000048B70BD085B002000000020000000005E
:103310000000103F00007A4458590020885B0020CC
:103320007E5C00200000003800401C46C85B002086
:1033300000000000485B002078302E76616C3D254F
:10334000640000006E322E76616C3D256400000042
:103350007047704770B5026804461068D1685369B9
:1033600010F00F0F52D003F0010501F490762E43B8
:103370005FD0C20705D0CA0503D5E26B42F0010257
:10338000E263420705D5DA0703D0E26B42F002029E
:10339000E263820705D5DA0703D0E26B42F004024C
:1033A000E263020707D501F020022A4303D0E26B53
:1033B00042F00802E263E26B002A33D0800604D5B3
:1033C000880602D5204601F004FC20684069E16BC4
:1033D000C0F38010090700D428B3204601F0EBFBAE
:1033E0002068416949061AD5416921F040014161CF
:1033F000606BA0B11B490165606BFEF71DF90028E9
:1034000010D0606B016DBDE870400847830610D591
:103410008B060ED52046BDE8704001F0DABB204691
:10342000FFF797FF70BD2046FFF793FF0020E06392
:1034300070BD030606D50B0604D52046BDE87040D6
:1034400001F0A6BC4006F3D54806F1D5D168204668
:1034500021F04001D160202184F8391000F0EEF80D
:1034600070BD0000A74B000870B5040004D094F8AC
:103470003900002510B106E0012070BD84F83850F5
:10348000204600F023F8242084F839002068C16821
:1034900021F40051C160204601F0E6FB206801697B
:1034A00021F4904101612068416921F02A014161C4
:1034B0002068C16841F40051C160E563202084F8B0
:1034C000390084F83A00002070BD000070B586B065
:1034D000064614216846FDF7BBFA24493068884245
:1034E00042D123480025016841F0100101600068C5
:1034F00000F0100005901E481438016841F00101E9
:1035000001600068694600F0010005904FF4C0605A
:1035100000900220CDE901050320039007200490CC
:103520001448FEF705FA154C134820604FF0006070
:1035300060604020C4E902050001C4E9040580017F
:10354000A561C4E9075020466562FEF75BF908B142
:10355000FEF737F83463002211462520A663FEF7F4
:103560008BFF2520FEF77AFF06B070BD00100140EA
:103570004438024000000240B8640240085C002069
:1035800070472DE9F843044690F839001F46164667
:103590000D46202850D1B5B1AEB194F838000128BD
:1035A0004AD0012084F838004FF00008C4F83C806D
:1035B000212084F83900FEF7A1FAA6848146E6842A
:1035C00084F8388026E00120BDE8F883E08C401EB6
:1035D000E084A0684B46B0F5805F4FF000024FF0EA
:1035E00080012046009703D001F003FCE8B90DE00C
:1035F00001F0FFFBC8B928882168C0F308004860C3
:10360000206908B16D1C05E0AD1C03E0216815F8C8
:10361000010B4860E08C0028D8D14B4600224021A5
:103620002046009701F0E5FB08B10320CCE72020FD
:1036300084F839000020C7E70220C5E77047FEE79D
:103640000148FEF763BA00005C5A00200148FEF70B
:10365000BABA00005C5A002010B5806B90F83D208B
:10366000436B002103B1D963836B03B1D963036852
:103670001C6824F480641C604185436B03B11965A8
:10368000836B03B1196503681C6824F001041C6096
:1036900090F83D402023602C0BD0282434EA02020D
:1036A0000FD080F83D3080F83E1000BFFEF7B8FB29
:1036B00010BD80F83D3080F83E100164FEF724FA1A
:1036C00010BD0268136843F00103136002681368B9
:1036D00043F480631360016380F83D40E6E7000037
:1036E00070B5044690F83D0094F83E10102906D1BC
:1036F000222804D121680A6822F400620A60282185
:1037000031EA00024FF000054FF0200626D0216874
:103710004968090503D4602801D084F83D60256319
:1037200084F83E5020684168090537D5416821F486
:1037300000614160606B90F835203C49012A11D04E
:103740000165606BFDF778FF38B32068016821F0F0
:103750000101016084F83D60606B1CE0256384F822
:103760003D10DFE7A06B0165A06BFDF765FFA0B121
:1037700020684169C943490605D40069616A087037
:10378000606A401C60622068016821F001010160EC
:1037900084F83D60A06B016D884710E094F83D10FF
:1037A000602910D04169C943490605D40069616A9E
:1037B0000870606A401C60622046FEF731FB206C96
:1037C000C1071CD115E084F83D6025644169C943F7
:1037D000490605D40069616A0870606A401C60622D
:1037E0002068016821F0010101602046FEF78CF994
:1037F000E5E7810703D4410701D4000704D5206819
:10380000416821F4E061416094F83D00216C490772
:103810000BD5282809D10648E062256384F83D606D
:1038200084F83E502046FEF7C1FB70BD59360008B3
:103830000000FFFF01684A69D24352050FD46FF4BC
:1038400080624A61002140F8301F20224273817358
:10385000026942F0040202610173012070470020F6
:10386000704710B5C26A438D0168042B06D0438DA2
:10387000032B08D0438D022B1DD012E04A6822F49E
:1038800080624A600CE04B6823F480634B60042A3A
:1038900006D0022A04D001680A6822F480620A6015
:1038A00001680969426A1170416A491C4162418D8F
:1038B000491E418510BD012A30D0102A2ED0042A7D
:1038C00030D0022A2ED00A6842F400720A600168E1
:1038D0000969426A1170416A491C4162428D521E57
:1038E0004285026812690A70416A491C4162418D31
:1038F000491E418501684A6822F440724A602021CD
:1039000080F83D1090F83E200021402A80F83E10BB
:103910000CD012210163FEF74AFB10BD0A6822F4A5
:103920008062D3E70A6842F48062CFE70163FEF762
:1039300040FB10BD10B590F83D10222914D1418DE7
:10394000032912D901680969426A1170416A491C48
:103950004162418D491E4185418D032904D1006892
:10396000416821F48061416010BDC26A022AFBD027
:10397000012901D00029F7D101680A6822F4806288
:103980000A6001684A6822F4E0624A6001680969D5
:10399000426A1170416A491C4162418D491E41854C
:1039A000202180F83D1090F83E200021402A80F828
:1039B0003E1004D012210163FEF7F9FA10BD016335
:1039C000FEF7F7FA10BD000010B5C26A90F83D107E
:1039D000212907D090F83E1040290FD1BDE81040B2
:1039E00000F06AB9418D51B1416A026809781161EC
:1039F000416A491C4162418D491E418510BD202309
:103A00000021082A13D0202A11D012F5803F0ED0B1
:103A10000268546824F4E06454601122026380F860
:103A20003E1080F83D3000BFFEF7C2FA10BD0268BC
:103A3000546824F4E06454600268146844F4007428
:103A40001460016380F83D3090F83E2080F83E100D
:103A5000402AE9D1FEF7AEFA10BD000010B590F88B
:103A60003D1090F83E30C26A048DB4B1212903D0D4
:103A7000402B11D122290FD1418DE1B390F83E1096
:103A8000402942D0416A026809781161416A491CA3
:103A90004162418D491E418510BD2129E8D1202375
:103AA0000021082A13D0202A11D012F5803F0ED011
:103AB0000268546824F4E06454601122026380F8C0
:103AC0003E1080F83D3000BFFEF772FA10BD02686C
:103AD000546824F4E06454600268146844F4007488
:103AE0001460016380F83D3090F83E2080F83E106D
:103AF000402AE9D100E002E0FEF75CFA10BD006860
:103B0000416821F48061416010BDBDE8104000F0C3
:103B1000D3B8000078B590F83E50C26A036B90F8B5
:103B20003D6000240168222E7AD1066D0EB9402D29
:103B300076D0056D1DB90569B5F5404F09D0458DA5
:103B400005B3468D384D012E0ED0438D022B3AD051
:103B50005DE04A698A6900920A6842F480720A60EC
:103B6000016D491C016578BDAA4213D10A6822F48F
:103B700080620A6001684A68120503D50A6822F467
:103B8000806216E04A698A6900920A6842F400720B
:103B90000A6039E0082A10D0202A0ED0122B0AD051
:103BA000042A03D0022A01D0102AE7D10A6842F47D
:103BB00080620A6024E0012AE0D00A6822F4806270
:103BC0000A600168DEE7042A21D0022A1FD0102AE9
:103BD0001DD00B6823F480630B6001680B6843F40D
:103BE00000630B6001684B681B0509D5AA4212D01F
:103BF000012A10D0082A0ED0102A0CD0202A0AD070
:103C000001684A6989690091046578BD08E00B681C
:103C100043F48063E5E74A6842F480524A60EFE784
:103C2000486988690090F0E70000FFFF90F83E10B7
:103C3000402910D00169B1F5804F19D0016DA9B3A9
:103C4000016D012910D1416C5FF0F10201F4407166
:103C500042EAD11106E0016D0029416C05D0C9B2DC
:103C600041F0010100680161704701F0FE01F9E7D0
:103C700090F83D102129416C09D0C9B241F00101F1
:103C800002681161416B29B1C96B49B902E001F0C9
:103C9000FE01F5E7816B0029E6D0C96B0029E3D06E
:103CA0000068416841F4006141607047FFE7416C82
:103CB000F02201F44071CBE7016DC1B1016D012922
:103CC00023D0016D022911D190F83D10222923D073
:103CD00090F83D10212909D1416A026809781161E3
:103CE000416A491C4162418D491E41857047C16C42
:103CF0000129816C02D0C1F3072108E00268C9B232
:103D00001161016D891C01657047816CC9B202683F
:103D10001161016D491CF6E70068016841F480718A
:103D2000016070472DE9F84F0446006889460B9DF5
:103D300001689846174641F4806101602068016877
:103D400041F48071016000954FF0011B002259463B
:103D500020460A9B00F0CEF94FF4007A40B120686B
:103D60000068C00501D5C4F840A00320BDE8F88F65
:103D7000216809F0FE0008612B46284920460A9A6E
:103D800000F0ECF9F0BB20684169806900902A4698
:103D900020460A9900F060FA40B1206C04283AD11C
:103DA0002068016841F40071016034E0FEB2B8F1AE
:103DB000010F09D02168380A08612A4620460A996D
:103DC00000F04AFA0028E8D1206806612A46204619
:103DD0000A9900F041FA0028DFD12068016841F417
:103DE0008071016000950022594620460A9B00F030
:103DF00081F90028B3D1216809F0FF0040F00100EB
:103E0000086100E007E02B46044920460A9A00F0CA
:103E1000A5F90028AAD00120A8E7000002000100AF
:103E20002DE9F843044600680D46DDE9089701686E
:103E30009846164641F4807101604B4600224FF0CF
:103E400001112046009700F055F948B1206800683C
:103E5000C00502D54FF4007020640320BDE8F8834C
:103E6000216805F0FE0008613B464A461549204698
:103E700000F074F988B920684169806900903A4679
:103E80004946204600F0E8F948B1206C042804D1E6
:103E90002068016841F4007101600120DEE7F5B29D
:103EA000B8F1010F09D02168300A08613A46494645
:103EB000204600F0D1F90028E7D1206805610020F4
:103EC000CCE70000020001002DE9F04190F83D40F0
:103ED000C26A002320261C4F01686FF48065082AFF
:103EE00001D0202A01D1282C04D0212C16D04D61DC
:103EF000BDE8F081C7624A6822F4E0624A60016866
:103F00004D6101680A6822F480620A60036380F8E8
:103F10003D6080F83E30FEF749F8E9E7C7622122AC
:103F2000026380F83D6080F83E304A6822F4E06227
:103F30004A6001684D6101680A6822F480620A6083
:103F4000FEF713FAD4E700000000FFFFF8B590F881
:103F50003D6004460068416821F4E06141602068EA
:103F6000002541690091016841F00101016020686C
:103F7000016821F48061016020684168090520D54D
:103F8000474F222E48D02A2E46D0616B09684968D7
:103F90006185618D19B1216C41F004012164416892
:103FA00021F400614160606BFDF758FB012808D0E7
:103FB000606B0765606BFDF73FFB10B1606B016DD7
:103FC0008847608D08B320684169C943490708D410
:103FD0000069616A0870606A401C6062608D401E02
:103FE000608520684169C943490608D40069616A4F
:103FF0000870606A401C6062608D401E6085608D44
:1040000018B1206C40F004002064206C00B32046FE
:10401000BDE8F840FFF764BBA16B0968496861859A
:10402000618D19B1216C41F004012164416821F4D2
:1040300000614160A06BFDF711FB0128C1D0A06BAE
:104040000765A06BFDF7F8FA0028BAD0A06BB6E7B9
:104050002A2E06D12563282084F83D002046FEF74D
:1040600083F994F83D10202028290DD0216B2229B6
:1040700001D0222E07D1256384F83D0084F83E50FC
:104080002046FEF771F9F8BD0649E162256384F820
:104090003D0084F83E502046FDF788FFF8BD000043
:1040A000593600080000FFFF70B516460D4604465D
:1040B0000DE02046FFF7BEFB08B1012070BD681C73
:1040C00005D0FDF71BFD801BA84207D835B120683D
:1040D0004069C0434007ECD4002070BD002044F884
:1040E000300F20216173A073216941F0200121610B
:1040F0002073E2E72DE9F0471E4690460D46044640
:10410000C1F30747DDF8209008E0701C06D0FDF7EA
:10411000F5FCA0EB0900B0420FD876B12068012F62
:1041200018D0806925EA00000004000C14D000219A
:104130004145EAD00020BDE8F087002044F8300F68
:1041400020216173A073216941F020012161207356
:104150000120F0E74069E5E70121E9E72DE9F047B3
:104160009A4691460E46044600254FF02008C1F3BA
:10417000074725E020684069C043400514D4206803
:10418000016841F40071016021686FF4806048614A
:10419000256384F83D8084F83E50206C40F0040094
:1041A000206484F83C501FE0B9F1FF3F08D0FDF7D0
:1041B000A5FCA0EB0A0149450CD8B9F1000F09D0C4
:1041C0002068012F13D0806926EA00000004000C4B
:1041D0000BD0CFE744F8305F84F80D80A5732069D9
:1041E00040F02000206125730120BDE8F087406980
:1041F000EAE72DE9F041002590460E4604462027C7
:1042000017E04069C043C0060CD454F8301B6FF06F
:104210001000486144F810596777A577206A20623A
:10422000257717E0FDF76AFCA0EB0800B04208D83C
:104230003EB120684169C9434906E2D40020BDE887
:10424000F08144F8305F6773A573206940F0200067
:10425000206125730120F2E770B516460D4604462D
:104260000DE02046FFF7E6FA08B1012070BD681C9A
:1042700005D0FDF743FC801BA84207D835B1206864
:104280004069C0430006ECD4002070BD002044F813
:10429000300F20216173A073216941F02001216159
:1042A0002073E2E77CB514460D4606466A460621B1
:1042B0003B2000F061F800280BD1BDF8001049BA8E
:1042C0003180BDF8021049BA2980BDF8041049BAFE
:1042D00021807CBD10B51C48FDF7A4FD80216B201A
:1042E00000F094F800216B2000F090F8032000F01B
:1042F00058F8002000F050F8322000F06FF800214C
:10430000382000F083F800216A2000F07FF80021B7
:10431000232000F07BF88021372000F077F875200B
:1043200000F014F8682801D0012010BD01216B2095
:1043300000F06CF800216C2000F068F8322000F0EA
:104340004DF8002010BD00005C5A00201FB5002170
:104350008DF80C1040F6FF73012203A98DE80E00C2
:1043600013460246D1210348FDF726FE9DF80C00B6
:1043700004B010BD5C5A00200EB540F6FF730092E9
:10438000CDE9011302460123D1210248FDF714FEB5
:1043900000200EBD5C5A0020C006010E1C2000F05B
:1043A00035B8C006010E1B2000F030B8BC2801D380
:1043B000012110E0622801D302210CE02A2801D358
:1043C000032108E0142801D3042104E00A2801D3C2
:1043D000052100E006211A2000F018B810B50446A7
:1043E0004FF47A70844201D9044602E0042C00D2D2
:1043F0000424B0FBF4F0401EC1B2192000F006F80E
:104400006008BDE81040FFF7D1BF00001FB540F6BF
:10441000FF738DF80C10012203A98DE80E001346DE
:104420000246D0210448FDF7C3FE6420FDF754FA8C
:1044300004B0002010BD00005C5A0020094808B5F7
:10444000016841F4800101600068002200F48000EE
:10445000009011464620FEF70FF8BDE808404620C0
:10446000FDF7FCBF303802402DE9F04F87B0142132
:104470006846FCF7EDFA4D480024016841F08001E0
:104480000160016801F080010591016841F00401BB
:104490000160016801F004010591016841F0020129
:1044A0000160016801F002010591016841F001011C
:1044B0000160016801F001010591016841F04001CE
:1044C0000160016801F040010591016841F020019F
:1044D00001600068364F00F0200041F670450590FD
:1044E000002229463846FDF704FBDFF8C8A04FF448
:1044F0008058002241465046FDF7FBFA00224FF457
:1045000082612D48FDF7F5FADFF8B0B04FF420597D
:10451000002249465846FDF7ECFA0126CDE900563F
:10452000032569463846CDE90245FDF701FACDE994
:10453000008669465046CDE90245FDF7F9F930029B
:1045400000901F480227CDE9010769461D48FDF785
:10455000EFF9CDE9009669465846CDE90245FDF7E9
:10456000E7F9CDF80080CDE9014769465846FDF7E7
:10457000DFF9B002CDE9000669460F48CDE90245F2
:10458000FDF7D6F9102003958DE8910069460A4899
:10459000FDF7CEF9002211461720FDF76DFF172019
:1045A000FDF75CFF07B0BDE8F08F00003038024037
:1045B00000080240000402400014024000180240BB
:1045C00000002110000002400D4810B50B490160A9
:1045D0000C49416000214FF480428160C0E9031220
:1045E00041618161C1610162FDF71CFC002803D0BB
:1045F000BDE81040FCF7E5BF10BD000000540040CE
:104600005C5A0020801A0600104810B50E4901605F
:104610004FF482714160002181600122C160C0E9D4
:104620000412520282611022C0E9072141628162B4
:104630000A21C162FEF7EAF9002803D0BDE8104064
:10464000FCF7BFBF10BD000000380040B05A00208A
:1046500010B586B000241848009401940294039485
:10466000049414490594016042F2CF01C0E9011499
:1046700040F2E731C0E9031480218161FEF79EFB1F
:1046800008B1FCF79EFF4FF48050009069460A483D
:10469000FEF707FC08B1FCF794FF049404A9064850
:1046A0000594FEF743FB002801D0FCF78AFF06B013
:1046B00010BD000000040040085B002010B586B06B
:1046C0000024009401940294039404940594002817
:1046D00033D0642806D84FF4FA61B1FBF0F14AF206
:1046E0000F4207E01649884227D816492922B1FB14
:1046F000F0F081B21548491E134BC0E902418021F8
:1047000004618161C0E90032FEF758FB08B1FCF793
:1047100058FF4FF48050009069460C48FEF7C1FBEB
:1047200008B1FCF74EFF049404A908480594FEF76D
:10473000FDFA002801D0FCF744FF06B010BD0000D0
:10474000400D030080841E0000080040485B0020EC
:1047500010B586B000241748009401940294039485
:10476000049413490594016042F2CF01C0E9011499
:1047700040F2E731C0E903148461FEF71FFB08B182
:10478000FCF71FFF4FF48050009069460948FEF780
:1047900088FB08B1FCF715FF049404A905480594AB
:1047A000FEF7C4FA002801D0FCF70BFF06B010BDDD
:1047B000000C0040885B00200C4810B50A490160DD
:1047C0004FF4E1314160002181600C22C160C0E9F9
:1047D00004128161C161FEF747FE002803D0BDE8E5
:1047E0001040FCF7EEBE10BD00100140C85B002079
:1047F000FEE7704710B51720FDF712FE0348FCF7DF
:10480000DFFC03490120487010BD0000745C0020EB
:104810009C0000207047000001B582B04FF6FF7089
:104820000090012301AA02A90248FEF777F99DF83A
:1048300004000EBDB05A002038B504461248134B90
:104840000068B0FBF3F04FF47A735843009060684F
:10485000B0F5827F0DD10B460092002280212046C8
:1048600000F034F870B1606D40F020006065032006
:1048700038BD009830B1401E009020688068C04369
:104880000006F6D5002038BD9800002000366E01E5
:10489000F0B50C4A00214FF40063084613600A4E3D
:1048A0004FF6FF741D0400BF04EA40001560D6F8FF
:1048B00030720FB1401C80B21360491CC9B210297C
:1048C000F2D3F0BD18080240000043422DE9F04148
:1048D0001D4617460E460446DDF8188008E0681CA1
:1048E00006D0FDF70BF9A0EB0800A8420BD255B19A
:1048F0002068806836EA000030D00020B842EED14F
:104900000020BDE8F0812068416821F0E0014160AD
:104910006068B0F5827F0BD1A068B0F5004F02D07F
:10492000B0F5806F04D12068016821F0400101607A
:10493000A06AB0F5005F09D12068016821F4005138
:1049400001602068016841F400510160012084F891
:104950005100002084F850000320D2E70120CDE769
:10496000704770B505460A20FCF7B6FF25B1012D4A
:1049700005D0022D06D108E0FCF7D6FC01E0FCF7DB
:10498000E7FC044624B1012070BDFCF7CFFBF8E73B
:104990001020FCF7B3FC0A20FCF79EFF0820FCF770
:1049A000ADFC0A20FCF798FF002070BDFDF7DEBCCF
:1049B00030B593B030216846FCF74AF814210CA8B2
:1049C000FCF746F819480025016841F08051016064
:1049D000006800F0805011901548016841F4804152
:1049E00001600068022400F48040119001200390CF
:1049F00010200490009406940820CDE90750A820C8
:104A0000CDE9090404200B906846FDF751FE0CA97E
:104A10000F2081E831004FF4A0500F90E002109079
:104A200005210CA8FDF75AFD13B030BD40380240F7
:104A3000007000400548016841F4700101600349BD
:104A40004FF00060803908607047000088ED00E09A
:104A50000148FEF792BA0000085B00200148FEF70B
:104A60008CBA0000485B00200148FEF786BA0000BF
:104A7000885B0020F0B50268254C264D264E274F56
:104A8000274B4FF0804CA04209D0604507D0A84288
:104A900005D0B04203D0B84201D0984204D122F0F0
:104AA000700E4A6842EA0E02A0421BD0604519D03F
:104AB000A84217D0B04215D0B84213D0984211D0B6
:104AC000184DA8420ED0184DA8420BD0174DA84241
:104AD00008D0174DA84205D0164DA84202D0164D59
:104AE000A84203D122F44075CA682A434D6922F0D6
:104AF00080022A4302608A68C2620A688262A04217
:104B000001D0984201D10969016301214161F0BDE1
:104B1000000001400004004000080040000C00407C
:104B200000040140004001400044014000480140B1
:104B300000180040001C00400020004010B58468B0
:104B400042EA032224F47F440A432243826010BDD8
:104B5000826822F070020A4342F0070181607047C8
:104B600010B5036A046A24F001040462846924F025
:104B7000F00444EA021423F00A020A438461026248
:104B800010BD10B5036A23F0100303628369046A41
:104B900023F4704343EA023224F0A00343EA0111F4
:104BA0008261016210BD10B5806B0021C185C18496
:104BB000FEF7CFFB10BD0168CA6822F49072CA608C
:104BC00001684A6922F001024A61202180F83A1006
:104BD000704710B590F83A10222901D0022010BD7C
:104BE0008168B1F5805F11D00169002901681FD08B
:104BF000496801F07F03816A4A1C82620B70C18D93
:104C0000491E0904090CC18518D02BE00269816A8C
:104C1000002A0268526805D0D2B20A80816A491C13
:104C20008162ECE7C2F308020A80816A891CF7E717
:104C30004A68816A4B1C83620A70E0E70168CA68AF
:104C400022F02002CA600168CA6822F48072CA6039
:104C500001684A6922F001024A61202180F83A1075
:104C6000FEF78EFC002010BD2DE9F04104460068DF
:104C70000169E26821F44051114301612169A06892
:104C8000E26908436169114308432168CA6849F22F
:104C90000C639A430243CA6020684169A26921F407
:104CA000407111434161E069192764253226B0F54E
:104CB000004F354A354920684FF0000806D0884239
:104CC00001D0904236D1FDF7B3FC35E0884201D0E7
:104CD000904202D1FDF7ACFC01E0FDF799FC616860
:104CE0004A18A0FB070148EB0803FBF779FE0146D1
:104CF000B0FBF5F00201B1FBF5F06FF0180358437B
:104D000001EB800006EBC000B0FBF5F000F0F8000E
:104D100002EB4002B1FBF5F0584301EB800006EBDB
:104D2000C000B0FBF5F000F0070021681044886077
:104D3000BDE8F081FDF76CFC61688B0F8A00A0FB79
:104D40000701FBF74DFE0146B0FBF5F06FF01802CE
:104D5000504301EB800006EB0010B0FBF5F000F0D3
:104D6000F002B1FBF5F002EB0012B1FBF5F06FF0D1
:104D70001803584301EB800006EB0010B0FBF5F080
:104D800000F00F00D1E700000014014000100140C6
:104D900090F83910212901D0022070478168B1F5BF
:104DA000805F016A0BD04A1C026202680978516078
:104DB000C18C491E0904090CC1840ED017E0098872
:104DC0000268C1F30801516001690029016A02D03B
:104DD000491C0162ECE7891CFBE70168CA6822F004
:104DE0008002CA600068C16841F04001C1600020D3
:104DF00070472DE9F041984617460E460446069D39
:104E00001DE0681C1BD02DB1FCF778FEA0EB08005C
:104E1000A84214D92068C16821F4D071C16020680B
:104E2000416921F001014161202084F8390084F8B2
:104E30003A00002084F838000320BDE8F0812068A3
:104E4000006836EA000004D00020B842D9D0002023
:104E5000F3E70120F9E700000148FEF77BBA000004
:104E6000C85B0020FEE700000FB4054B10B503A996
:104E7000044A029800F02CF910BC5DF814FB000005
:104E80007D5C0008F40000200907090E002804DBFF
:104E900000F1E02080F80014704700F00F0000F1EE
:104EA000E02080F8141D704700B52DED048BB0EEA6
:104EB000409AF0EE609A83B051EC190BFCF7ADF814
:104EC00041EC180B18EE100A18EE901A8DED008BBD
:104ED000002818BF0120084320F00040C0F17F6087
:104EE00000F1E040C00F14D019EE101A19EE900A2C
:104EF0008DED009B002918BF0121084320F00040E0
:104F0000C0F17F6000F1E040C00F04BF012000F05D
:104F100017F8B0EE480A03B0F0EE680ABDEC048B57
:104F200000BD02E008C8121F08C1002AFAD170476C
:104F30007047002001E001C1121F002AFBD1704719
:104F40000149086070470000F80000202DE9FF5F6C
:104F500082B00021DDE90430020DDDF840B00343EA
:104F600018D044F61050A2F2FF32424315141198A3
:104F700001281FD0A5EB0B00401C5FEA000A4FF090
:104F800000064E4FDFF83891B046504615D5CAF1AD
:104F9000000413E0119801244AA3012801D16FEA0B
:104FA0000B010298119AC0E90031C0E9024206B033
:104FB000BDE8F09FCBF10000DFE704460021404A46
:104FC000491842EB0450CDE9001012E0E00707D089
:104FD00032463B4640464946FBF7ECFD8046894653
:104FE00032463B4610461946FBF7E4FD06460F469F
:104FF0006410002CEAD1DDE90401DDE90023BAF1F7
:10500000000F06DAFBF7D6FD42464B46FBF7D2FD12
:1050100005E0FBF741FE42464B46FBF73DFE0446EA
:105020000E460022284BFBF7E9FE03D84FF0FF3075
:10503000014607E00022254B20463146FBF713FDD1
:10504000FCF73CF8102409E0002C0ADB0A220023BC
:10505000FBF7C6FC039B30321A55641E50EA01026E
:10506000F2D1641C039AC4F111031444119A012A69
:1050700003D0012208430DD10AE0084304D00020E8
:105080004FF0110B119072E7A3EB0B056D1E0DE0B5
:105090005B4504DD4FF0000205F1010504E003DA91
:1050A0004FF00002A5F10105002AECD002981199F9
:1050B000C0E90231C0E9004579E700000000144072
:1050C0000000F03F300000000000F0430000E03F2F
:1050D0002DE9FF4F95B09B468946064600250FE215
:1050E000252877D100242746F84A0121059400E0BD
:1050F000044316F8013F203B01FA03F01042F7D1B8
:1051000030782A2811D06FF02F033078A0F13002C8
:10511000092A16D8059A44F0020402EB820203EB36
:1051200042021044761C0590EFE759F8042B0592D3
:10513000002A03DA504244F40054059044F002047B
:10514000761C30782E2816D116F8010F44F004048E
:105150002A280DD06FF02F023078A0F13003092BF0
:1051600009D807EB870302EB4303C718761CF3E764
:1051700059F8047B761C30786C280FD006DC4C285C
:1051800017D068280DD06A2814D104E0742810D0F4
:105190007A280FD10DE044F400140AE044F480149E
:1051A00001E044F440147278824202D104F5801484
:1051B000761C761C307866280BD013DC582877D004
:1051C00009DC002875D04528F6D04628F4D04728B9
:1051D0001AD19DE118E0632835D0642879D065287C
:1051E00012D195E1702873D008DC6728F1D06928C6
:1051F0006FD06E280DD06F2806D1B5E073282CD063
:10520000752875D0782874D05A46179990476D1C28
:1052100075E1C4F30250022809D003280DD0D9F853
:10522000001004280DD00D6009F1040967E1D9F8D8
:105230000010EA17C1E90052F6E7D9F800100D8016
:10524000F2E70D70F0E719F8041B8DF8001000204C
:105250008DF80100EA46012003E059F804AB4FF055
:10526000FF3061074FF0000102D40DE008F10101A9
:105270008846B9420FDA8045F8DB1AF80810002991
:10528000F4D108E008F1010188468142FADB1AF8FE
:1052900008100029F6D105985B46A0EB08072146C7
:1052A0003846179A00F094FA284400EB080507E006
:1052B0004DE029E10DE01AF8010B5A461799904785
:1052C000B8F10108F7D25B4621463846179A13E138
:1052D00042E00A220092C4F302524FF0000A022A6E
:1052E00008D059F804CB032A4FEAEC710AD00DE03C
:1052F00029E02AE009F1070121F00702F2E802C1E2
:10530000914609E00FFA8CFC4FEAEC71042A03D1B4
:105310004FFA8CFC4FEAEC71002907DA0A460021AB
:10532000DCF1000C61EB02012D2202E0220504D524
:105330002B228DF80420012203E0E20701D0202275
:10534000F7E7904659E00A2102E010220DE0102113
:105350004FF0000A00910BE010224FF0000A44F0D9
:1053600004040827009203E008224FF0000A00928C
:10537000C4F30252022A05D059F804CB0021032AB3
:1053800008D009E009F1070121F00702F2E802C1A3
:10539000914605E01FFA8CFC042A01D10CF0FF0CA9
:1053A0004FF00008220728D5702806D0009B83F014
:1053B000100353EA0A0305D00EE040228DF80420C2
:1053C000012208E05CEA010206D030228DF80420B8
:1053D0008DF8050002229046009B83F0080353EAF3
:1053E0000A030AD15CEA010201D1620705D5302225
:1053F0008DF804204FF001087F1E582804D034A0F7
:1054000003900EA802900DE036A0F9E753466046DF
:10541000009AFBF7E5FA84460398825C0298401EE6
:10542000029002705CEA0100F0D1029806A9081A05
:1054300000F1200A600702D524F4803400E001273F
:10544000574502DDA7EB0A0000E0002000EB0A014F
:10545000009005984144401A0590E00306D45B464D
:105460002146179A059800F0B3F90544002706E095
:1054700001A85A46C05D179990476D1C7F1C47458F
:10548000F6DBE0030CD55B462146179A059800F041
:105490009FF9054404E030205A46179990476D1C47
:1054A0000099481E00900029F5DC08E00298029956
:1054B0005A460078491C0291179990476D1CBAF121
:1054C0000001AAF1010AF1DC65E1000009280100F0
:1054D000303132333435363738396162636465666A
:1054E000000000003031323334353637383941422C
:1054F000434445460000000000F058F90544761C7E
:10550000307800287FF4ECAD19B02846BDE8F08F64
:10551000620700D4062709F1070222F0070CFCE815
:105520000223E14603F000485FEA080C02D00FF2C4
:10553000702C0DE05FEA045C02D50FF2682C07E0E6
:105540005FEAC47C02D00FF2602C01E0AFF2700C75
:105550004FF0FF3823F00043CDF850C065280CD041
:1055600006DC452809D046281DD047283DD13DE01E
:10557000662818D067287ED138E00021112F01DB82
:10558000112000E0781CCDE9000106A90EA8FFF764
:10559000DDFCDDE90F010E9A03910021009207F175
:1055A000010A04914DE04FF000400097CDE9011051
:1055B00006A90EA8FFF7CAFCDDE90F0203920E9BB5
:1055C00011990022DDF80CA00093049211B9791C06
:1055D00000EB010AB7EB0A0004D4C0F1FF3007F179
:1055E000010A0490AAEB0700019044E0012F00DAC1
:1055F00001270021112F01DD112000E03846CDE9FF
:10560000000106A90EA8FFF7A1FCDDE90F010E9A23
:105610000391002104910092BA4621070CD403990A
:10562000514500DA8A46BAF1010F05DD009AAAF168
:105630000101515C302908D0B84202DA10F1040FA0
:1056400006DA0121CDE9011015E0AAF10101E9E72F
:10565000002805DC049901440491AAEB000102E052
:10566000411C514500DD8A460499401A401C0190B6
:105670004FF000400290200704D40198504501DB10
:10568000CDF8048000208DF84F0002980DF14F07EF
:10569000B0F1004F25D02B200E9002984FF0020859
:1056A00000280CDA404202902D200E9007E00A21DB
:1056B0000298FBF7D7FB3031029007F8011DB8F1D3
:1056C0000001A8F10108F2DC02980028EFD1791E50
:1056D0000E980870307800F0200040F0450007F880
:1056E000020D12A8C01B00F107081498007800B141
:1056F000012000EB0A01019801EBE071059841449B
:10570000401A401E0590E00306D45B462146179AD6
:10571000059800F05DF805441498007818B15A46D1
:10572000179990476D1CE00324D55B462146179AD4
:10573000059800F04DF805441CE00498002807DBAC
:10574000DDE90301884203DD0098405C179901E020
:10575000179930205A469047049805F10105401CDE
:1057600004900198401E019004D12E205A461799AA
:1057700090476D1CBAF10001AAF1010ADDDC05E0D9
:1057800017F8010B5A46179990476D1CB8F10001A4
:10579000A8F10108F4DC5B462146179A0598ABE6B0
:1057A0002D0000002B000000200000002DE9F0413A
:1057B000044600251E461746880404D405E03946F1
:1057C0002020B0476D1C641EF9D52846BDE8F08145
:1057D0002DE9F041044600251E469046C80301D538
:1057E000302700E02027880404D505E041463846EC
:1057F000B0476D1C641EF9D52846BDE8F081000055
:10580000F0B50F4E4FF080503060002547140D4C1E
:1058100000F01AF86188B94205D204EB4101C88052
:105820006088401C60806D1C15F0FF05F0D00020E2
:1058300060804FF480503060BDE8F04000F040B828
:10584000180802407E5C0020FFF722B805484FF0A0
:105850008062026001150160016001600160026008
:105860007047000018080240F0B54FF48002531052
:105870001025124901280FD02026941002280DD09F
:1058800003280DD0402704280ED0052810D0062864
:1058900011D00A600B6009E00A600AE00A600BE0C0
:1058A0000A600E600D60F0BD0F60F3E70C60F0BDA4
:1058B0000F600B60F6E70F600E60F7E71808024014
:1058C00007484FF000510160016001600160016014
:1058D000016001600160016009140160704700000F
:1058E0001818024010B50346FFF7EAFF054A0021E9
:1058F000184611805180FEF7E1FEBDE810400248D5
:10590000FDF7BEBA7E5C0020485B002000B5062093
:10591000FFF7AAFFFFF79AFF02494FF40050086013
:1059200000BD00001818024008B50548054B064A9E
:1059300000680090312103F5C470FAF7DAFE08BD63
:10594000F0000020786E0020F86200080A46014648
:10595000024803680248FAF733BC0000F000002058
:105960000070002010B58A1E2DED048B9FED5B9B0F
:105970009FED5C8B072A73D2DFE802F0040B25331E
:10598000475B730000F10801406851F8081C401A99
:105990000AE0011D826851F804090968121A401AC8
:1059A000104400EBD0704010FBF7E5F941EC100B10
:1059B00051EC180B53EC102BFBF76EF941EC100B6C
:1059C00053EC192B69E000F10801C06851F808296F
:1059D000831A48680968121A401A1A4410440321AD
:1059E00058E000F10C01006951F80C29831A88680D
:1059F000121A13444A680968801A1844511A084454
:105A0000C11700EB91708010CEE700F110014069E2
:105A100051F81029831AC868121A13448A68801A28
:105A2000034448680968121A401A1A4410440521B0
:105A300030E000F11401806951F81429831A0869D3
:105A4000121A1344CA68801A03448868121A13444D
:105A50004A680968801A1844511A0844062119E056
:105A600025E000F11801C06951F81829831A486926
:105A7000121A13440A69801A1844CB68D21A0244D5
:105A800088681B1A13444A680968801A1844511A16
:105A90000844072190FBF1F086E751EC100BFBF76F
:105AA00089F8BDEC048BBDE81040FBF775B900EB3D
:105AB0008100083803C8081AFBF75DF941EC100BA8
:105AC00051EC180B53EC102BFBF7E6F89FED071B7E
:105AD00041EC100B53EC112BDFE70000000000003D
